{
  "contractName": "MagellanicToken",
  "abi": [
    {
      "constant": true,
      "inputs": [],
      "name": "totalSupply",
      "outputs": [
        {
          "name": "",
          "type": "uint256"
        }
      ],
      "payable": false,
      "stateMutability": "view",
      "type": "function"
    },
    {
      "inputs": [
        {
          "name": "_total",
          "type": "uint256"
        }
      ],
      "payable": false,
      "stateMutability": "nonpayable",
      "type": "constructor"
    }
  ],
  "bytecode": "0x608060405234801561001057600080fd5b506040516020806100f58339810180604052602081101561003057600080fd5b81019080805190602001909291905050508060008190555050609e806100576000396000f3fe608060405260043610603f576000357c0100000000000000000000000000000000000000000000000000000000900463ffffffff16806318160ddd146044575b600080fd5b348015604f57600080fd5b506056606c565b6040518082815260200191505060405180910390f35b6000548156fea165627a7a7230582042c0dea6d5ec1168afac8d5dd15e7e5b72949708cd53216eb2e242bf5db33d3f0029",
  "source": "pragma solidity >=0.4.20;\r\n\r\ncontract MagellanicToken{\r\n    uint256 public totalSupply;\r\n    constructor(uint256 _total) public{\r\n        totalSupply=_total;\r\n    }\r\n}",
  "sourcePath": "D:/ethereuem and solidity/Magellanic coin/contracts/MagellanicToken.sol",
  "compiler": {
    "name": "solc",
    "version": "0.5.0+commit.1d4f565a.Emscripten.clang"
  },
  "schemaVersion": "3.0.2",
  "updatedAt": "2021-12-07T12:29:24.821Z",
  "devdoc": {
    "methods": {}
  },
  "userdoc": {
    "methods": {}
  }
}